:020000040800F2
:10000000602800208D020008110200084104000849
:1000100089040008D1040008190500080000000048
:100020000000000000000000000000001B020008AB
:100030001D020008000000001F02000851310008E6
:1000400023020008A13A000827020008290200083C
:100050002B0200082D0200082F02000831020008C0
:10006000330200083502000837020008F5160008C0
:100070003B0200083D020008052400084102000878
:100080004302000845020008470200087D6C000892
:10009000716C0008796C00084F02000851020008DA
:1000A000530200085502000857020008F92400080E
:1000B000252A00085D0200085F02000861020008AE
:1000C0006302000865020008670200086902000870
:1000D0006B0200086D0200086F0200087102000840
:0C00E00073020008750200087702000897
:1000EC002D498D462D492E480A1A04D081F30988D2
:1000FC00022282F314882B482B492C4A00F039F841
:10010C002B482C492C4A00F034F82C482C492D4A09
:10011C0000F02FF82C482D492D4A00F02AF82D48D4
:10012C002D492E4A00F025F82D482E492E4A00F074
:10013C0020F82E482E49002200F026F82D482E4992
:10014C00091A082903DB00220260043001601F48F1
:10015C001F49884205D00268043003B4904703BCA1
:10016C00F7E700208646EC4600200021234A904702
:10017C00FEE7884207D0521A05D0037801300B7085
:10018C000131013AF9D17047884202D00270013036
:10019C00FAE770471A487047602800206028002052
:1001AC00602800208CED0008000000209402002044
:1001BC009C0200089C020008D8DB00088CED0008AB
:1001CC000000002000000020D8DB0008D8DB00086D
:1001DC00D8DB0008D8DB0008D8DB0008D8DB000827
:1001EC00D8DB0008D8DB00088CED00089402002056
:1001FC006020002060200020602400209D02000868
:10020C00FFFFFFFFFEE7FEE7FEE7FEE7FEE7FEE788
:10021C00FEE7FEE7FEE7FEE7FEE7FEE7FEE7FEE7AA
:10022C00FEE7FEE7FEE7FEE7FEE7FEE7FEE7FEE79A
:10023C00FEE7FEE7FEE7FEE7FEE7FEE7FEE7FEE78A
:10024C00FEE7FEE7FEE7FEE7FEE7FEE7FEE7FEE77A
:10025C00FEE7FEE7FEE7FEE7FEE7FEE7FEE7FEE76A
:10026C00FEE7FEE7FEE7FEE7FEE7FEE7054885460C
:10027C0007F034FB044805490160FFF731BF7047B4
:10028C00FEE700000050002008ED00E00000000830
:10029C002DE9F04781B001F071F94FF44064C4F2DC
:1002AC00010420464FF0080101F0CCF840F2AC25D7
:1002BC00C2F20005286020464FF0100101F0C2F890
:1002CC0040F29826C2F20006306020464FF40041FE
:1002DC0001F0B8F840F29C23C2F2000318600368E6
:1002EC0082885A6102F0C0FA04F036FE01F0F6FD85
:1002FC0000F0A4FF01F0D2FF06F0D6FB03F090FC57
:10030C0004F092FC05F0A8FA4FF0000002F0E2FBBA
:10031C0040F29423C2F200034FF00000187000F07A
:10032C006FFB4FF0C8004FF0640100F005FC4FF478
:10033C0096704FF0640100F0FFFB4FF4C8704FF063
:10034C00640100F0F9FB4FF4FA704FF0640100F017
:10035C00F3FB4FF4C8704FF0640100F0EDFB4FF469
:10036C0096704FF0640100F0E7FB4FF0C8004FF0BF
:10037C00640100F0E1FB02F09DF92B681A689B8880
:10038C00136133681A689B8813614EF6FC53CEF2E6
:10039C0000031A6842F080721A604FF48053CEF258
:1003AC0000031A6842F001021A6040F2A423C2F260
:1003BC0000034FF6FF721A6040F2B025C2F200053E
:1003CC0041F63064C2F2000441F6586AC2F2000AE7
:1003DC0040F2A826C2F20006984600E01F462B68A1
:1003EC0003F101032B6023684B450DD0236813F0F8
:1003FC00010F09D19AF8003013B904F0DFFA01E0CB
:10040C0005F0F0F8D4F8009041F20403CEF20003AA
:10041C001B68DF1B0097326800998A1832600099BC
:10042C00D8F800209142D9D2009AC8F80020D5E71C
:10043C0000BFFDE748F26C02C4F221224FF000032A
:10044C00136048F27C02C4F22122136048F28C0241
:10045C00C4F2212213604FF40063C4F201034FF481
:10046C0000021A614FF44063C4F201034FF480326E
:10047C001A614FF400321A61FEE700BF48F26C02B9
:10048C00C4F221224FF00003136048F27C02C4F244
:10049C002122136048F28C02C4F2212213604FF423
:1004AC000063C4F201034FF400021A614FF440637D
:1004BC00C4F201034FF480321A614FF400321A6116
:1004CC00FEE700BF48F26C02C4F221224FF0000399
:1004DC00136048F27C02C4F22122136048F28C02B1
:1004EC00C4F2212213604FF40063C4F201034FF4F1
:1004FC0000021A614FF44063C4F201034FF48032DE
:10050C001A614FF400321A61FEE700BF48F26C0228
:10051C00C4F221224FF00003136048F27C02C4F2B3
:10052C002122136048F28C02C4F2212213604FF492
:10053C000063C4F201034FF400021A614FF44063EC
:10054C00C4F201034FF480321A614FF400321A6185
:10055C00FEE700BF2DE9F0472A4F4FF0000440F6AC
:10056C00DB78C4F2C9084FF06A5940F2CC2AC2F2C7
:10057C00000A20460AF06CFB41460AF041FD494650
:10058C000AF03EFD05460BF04BFB064628464FF0A5
:10059C000001C4F240010AF033FD0BF041FB4FF0B7
:1005AC000001C4F2C0010AF095FD014630460AF084
:1005BC0091FC05464FF00000C4F240000BF04AFBE2
:1005CC0001464FF080400AF085FD014628460AF0AE
:1005DC0017FD0546DAF800000AF03AFB01462846FA
:1005EC000AF00EFD4FF07C510AF00AFD0AF0C2FB36
:1005FC0027F8020F04F10104B4F5806FB9D1BDE8FE
:10060C00F08700BFE202002002884FF40063C4F2BE
:10061C0000039A8642881A8782889A87028802F198
:10062C00120292B24FF48063C4F200031A8742881C
:10063C0002F1120292B29A87828802F1120292B2ED
:10064C00A3F84020704700BFF0B582B040F2A02361
:10065C00C2F200031B78042B40F016814FF07C0291
:10066C00C4F221224FF00103136048F20C02C4F2D1
:10067C002122136048F21C02C4F22122136048F2BA
:10068C006C02C4F22122136048F27C02C4F22122D3
:10069C00136048F28C02C4F22122136040F2C8238A
:1006AC00C2F200031D6841F60074C2F2000440F669
:1006BC00EC23C2F20003186829460AF009FCD4F8AE
:1006CC00B0100AF09DFC064640F6F023C2F200037F
:1006DC001C6821460AF0EEFD002808DC04F10040FD
:1006EC00044631460AF0E6FD0028D8BF34462046C1
:1006FC0029460AF0EFFB064640F2D825C2F2000567
:10070C00204629680AF0E4FB41F60073C2F20003AC
:10071C00D3F8B4100AF074FC014630460AF0DAFB48
:10072C0040F2C823C2F2000318602C604FF08941DC
:10073C000AF066FC4FF00001C4F2B4310AF0CAFCB6
:10074C000AF018FB00280BDA034613F58063FCD47F
:10075C0000F580636FEA00004FEA902003EB8020E5
:10076C0040F2FF34C8F200040440002C07DA04F114
:10077C00FF346FEA84546FEA945404F1010440F29C
:10078C00CC23C2F20003186800EBD0704FEA600073
:10079C000AF05EFA074641F60073C2F20003D3F882
:1007AC00AC6040F2E423C2F2000333F914000AF007
:1007BC004FFA31460AF024FC4FF00001C4F2C82174
:1007CC000AF088FC014638460AF084FB0AF0F2FA7B
:1007DC00ADF8000004F5AA7303F1010340F2FF34F5
:1007EC00C8F200041C40002C07DA04F1FF346FEA55
:1007FC0084546FEA945404F1010440F2E425C2F2EB
:10080C00000535F914000AF023FA014630460AF0C7
:10081C00F7FB4FF00001C4F2C8210AF05BFC014663
:10082C0038460AF057FB0AF0C5FAADF8020004F599
:10083C00AA7404F1010440F2FF33C8F20003234010
:10084C00002B07DA03F1FF336FEA83536FEA9353FC
:10085C0003F1010335F913000AF0FAF901463046A9
:10086C000AF0CEFB4FF00001C4F2C8210AF032FCB2
:10087C00014638460AF02EFB0AF09CFAADF804004B
:10088C006846FFF7C1FE1FE04FF07C02C4F2212244
:10089C004FF00003136048F20C02C4F221221360E3
:1008AC0048F21C02C4F22122136048F26C02C4F21A
:1008BC002122136048F27C02C4F22122136048F218
:1008CC008C02C4F22122136002B0F0BD30B540F6A8
:1008DC00EC25C2F200050AF0BBF941F60074C2F235
:1008EC000004D4F8BC100AF08BFBA16D0AF088FB55
:1008FC004FF07C510AF084FB044640F2CC23C2F248
:10090C00000318680AF0A4F9014620460AF0E2FB3D
:10091C00286030BD10B540F6EC24C2F2000441F65C
:10092C000073C2F20003996D0AF06AFB4FF07C5120
:10093C000AF066FB206010BD40B2B0B14FF07C02F3
:10094C00C4F221224FF00103136048F20C02C4F2EE
:10095C002122136048F21C02C4F22122136040F2DF
:10096C00B822C2F20002137070474FF07C02C4F23E
:10097C0021224FF00003136048F20C02C4F2212232
:10098C00136048F21C02C4F22122136040F2B82218
:10099C00C2F200021370704740F2A023C2F20003AF
:1009AC001A78002A14BF0246002292B24FF4006358
:1009BC00C4F200039A861A879A8740F2DE23C2F2A9
:1009CC00000393F90030D3B140F2CC23C2F2000300
:1009DC001B681A46002BB8BFDA1D10EBE20003D4DB
:1009EC009842A8BF184601E04FF0000080B24FF4C7
:1009FC008063C4F2000318879887A3F840007047FF
:100A0C0040F2CC23C2F200031A688242A8BF20EA4B
:100A1C00E07240F2E023C2F200031A60704700BF9C
:100A2C0010B5044672B601F0ADFE40F2BC23C2F222
:100A3C000003186062B640F6E423C2F200031B7890
:100A4C00E318DBB25AB2062A03DC002AD8BF06230D
:100A5C0001E04FF0010340F2B422C2F20002137025
:100A6C0040F25403C2F2000353F8242048F26C0302
:100A7C00C4F221231A6040F23803C2F2000353F887
:100A8C00242048F27C03C4F221231A6040F20003B4
:100A9C00C2F2000353F8242048F28C03C4F2212341
:100AAC001A6040F2DE23C2F2000393F900303BB12E
:100ABC0040F2B823C2F2000393F90000FFF73CFFA9
:100ACC0040F27003C2F2000353F824204FF4006389
:100ADC00C4F201031A6140F28C03C2F2000353F812
:100AEC0024204FF44063C4F201031A6140F21C024B
:100AFC00C2F2000252F824201A6110BD10B504464F
:100B0C0040F2B423C2F20003187840B2FFF788FF1A
:100B1C002046002CB8BFE01C04EBA00047F6FF7386
:100B2C009842A8BF184640F60931C0F6000122468B
:100B3C0001F022FF10BD00BF2DE9F04786B28CB248
:100B4C004FF00000FFF76CFF40F2E73001F0BEFF02
:100B5C00824672B6A14644B34FF000054FF4406490
:100B6C00C4F201044FF040074FF4800801F0ACFFD1
:100B7C0027614FF0080001F02BFEC4F810803046BE
:100B8C0001F026FE01F0A0FF4FF0020323614FF0AD
:100B9C00080001F01DFE4FF080732361304601F018
:100BAC0017FE05F101054D45E0DB62B6504601F03C
:100BBC008DFFBDE8F08700BFF0B583B005466846F1
:100BCC0007F032FC4FF00106ADF8006005F1FF357F
:100BDC00ADB2ADF804504FF02007ADF802704FF4F1
:100BEC008064C4F200042046694606F0A1FF684602
:100BFC0007F01AFCADF80060ADF80450ADF80270C7
:100C0C004FF40065C4F200052846694606F090FFD3
:100C1C004FF00003AB84A38403B0F0BD10B50446C1
:100C2C0040F2A023C2F200031B78022B64D040F2E6
:100C3C00D423C2F200031A7840F2B423C2F20003A8
:100C4C001B785BB29A4240D101F0EAFD40F2D4230A
:100C5C00C2F200031878FFF7E3FE40F6E823C2F275
:100C6C0000031A6802F101021A601B68052B06D9F1
:100C7C0040F2C423C2F200034FF000021A6040F2AB
:100C8C00A023C2F200031B78042B0BD104EBD4700D
:100C9C0004EB600040F60931C0F60001224601F079
:100CAC006BFE10BD40F2A023C2F200031B78032B95
:100CBC0022D104EBD47004EB600040F60931C0F68D
:100CCC000001224601F058FE10BD40F2C423C2F2CE
:100CDC0000031A6802F101021A6040F2C023C2F24A
:100CEC0000031A6802F101021A6040F6E823C2F20E
:100CFC0000034FF000021A6010BD00BF10B540F2A7
:100D0C00DC23C2F200034FF000041C802046FFF7E6
:100D1C0013FE40F2B423C2F20003187840B2FFF77E
:100D2C007FFE40F2A023C2F200034FF002021A70C1
:100D3C0040F62961C0F600012046224601F01CFE57
:100D4C0010BD00BF70B5C6B24FF00000FFF7F4FD48
:100D5C0040F6F424C2F2000441F60072C2F2000222
:100D6C0041F63463C2F20003506C19680AF0B2F910
:100D7C00054640F2CC23C2F20003186809F068FF64
:100D8C00014628460AF03CF909F0F4FF206040F6D1
:100D9C009C33C2F20003186800EBD0704FEA60007D
:100DAC0000F094FC41F61063C2F200031A6840F69E
:100DBC009033C2F200031A60226840F2E023C2F2C0
:100DCC0000031A601868FFF7E7FD40F6DC43C2F237
:100DDC0000034FF00000186040F6E823C2F2000355
:100DEC00186040F2C423C2F20003186040F2C02322
:100DFC00C2F200031860F6B240F2B423C2F2000350
:100E0C001E7040F6C433C2F200031A6840F6093172
:100E1C00C0F6000101F0B0FD70BD00BFF0B5064694
:100E2C0040F2DC23C2F20003B3F9000009F010FF1A
:100E3C00054641F60073C2F20003D3F890402146F8
:100E4C000AF038FA002837DA41F60076C2F20006CA
:100E5C00284621460AF03EF9D6F894100AF0D0F84C
:100E6C0041F63463C2F2000319680AF033F9044600
:100E7C0040F2CC23C2F20003186809F0E9FE0146E7
:100E8C0020460AF0BDF809F075FF40F6F423C2F2D3
:100E9C000003186040F2E023C2F2000318601868E7
:100EAC00FFF77AFD40F62961C0F600014FF4FA60B5
:100EBC00024601F061FDC0E041F60073C2F200038E
:100ECC00D3F89870204639460AF004F801462846B3
:100EDC000AF0F0F9002874DA284621460AF0EAF9FB
:100EEC00A0B941F60073C2F20003996B084609F0F1
:100EFC00F1FF09F03FFF064641F61063C2F2000312
:100F0C001A6840F69033C2F200031A6040F2B42320
:100F1C00C2F20003187840B2FFF782FD41F600746C
:100F2C00C2F2000441F63463C2F20003606C19682B
:100F3C000AF0D0F8054640F2CC23C2F20003186840
:100F4C0009F086FE014628460AF05AF809F012FF0D
:100F5C0040F6F423C2F20003186040F2E023C2F220
:100F6C00000318601868FFF717FD304609F070FE93
:100F7C000546D4F8A010084609F0ACFF01462846F7
:100F8C0009F0A6FF09F0F6FE054609F061FE0746DA
:100F9C00D4F89C10084609F09DFF014638460AF02B
:100FAC0089F9002804DA40F6C433C2F200031D6844
:100FBC0040F62961C0F6000130462A4601F0DCFCFF
:100FCC003BE038464FF000010AF074F938B340F6B4
:100FDC00DC42C2F200024FF00003136040F6E8223C
:100FEC00C2F20002136040F2C422C2F2000213608B
:100FFC0040F2C022C2F20002136040F2B423C2F2EB
:10100C000003187840B2FFF70BFD01F0F7FB40F23C
:10101C00A023C2F200034FF003021A700DE040F25D
:10102C00A023C2F200034FF003021A7040F2B42363
:10103C00C2F200031878FFF785FE40F2DC23C2F2FF
:10104C0000031A8802F101021A80F0BD2DE9F04F5D
:10105C0041F60073C2F200035C6DD3F844A09F6CA0
:10106C00D3F84C80DD6FD3F8B89020464FF0854113
:10107C000AF020F9002807DC20464FF081410AF0E5
:10108C0019F9002803DB04E04FF0854401E04FF030
:10109C00814450464FF00001C4F240010AF00AF9B5
:1010AC00002809DC504609F0BBFE62A30CCB0AF009
:1010BC002DFC002805DB08E04FF0000AC4F2400AC2
:1010CC0003E04CF6CD4AC3F6CC5A38464FF0884173
:1010DC000AF0F0F8002807DC38464FF07E510AF091
:1010EC00E9F8002803DB04E04FF0884701E04FF0FB
:1010FC007E5740464FF088410AF0DCF8002807DCA8
:10110C0040464FF07E510AF0D5F8002803DB04E08E
:10111C004FF0884801E04FF07E5828464FF0000110
:10112C000AF0C8F80028CCBF4FF07E5B4FF0000BE4
:10113C0048464FF000010AF0BDF80028DCBF4FF024
:10114C000009C4F2B43920464FF00001C4F27A41D0
:10115C0009F056FF014609F0BDFE09F00BFE40F602
:10116C00F823C2F20003186040F28C23C2F2000391
:10117C001B684FEA5303B3FBF0F040F2CC23C2F2EE
:10118C0000031860FFF718FD40F2B625C2F2000507
:10119C00384609F0EFFD288040F2BA25C2F200056E
:1011AC00404609F0E7FD288040F2DE25C2F200053A
:1011BC00584609F0DFFD287040F6F026C2F2000612
:1011CC0048464FF00001C4F2FA4109F083FF41F6A2
:1011DC000075C2F20005A96D09F012FF4FF07C51A9
:1011EC0009F00EFF3060D5F8C4004FF000010AF092
:1011FC0061F80028ACBF0120FF2040F6E423C2F2C6
:10120C000003187041F60075C2F200056C65C5F854
:10121C0044A0AF64C5F84C80C5F87CB0C5F8B89054
:10122C0040B209F015FDC5F8C400FFF793F9BDE80D
:10123C00F08F00BF9A9999999999B93F2DE9F04F80
:10124C0087B0FFF703FF40F2CC23C2F200031B6808
:10125C0040F2E028C2F20008C8F8003040F2D42373
:10126C00C2F200034FF0000983F800904FF0030B1B
:10127C00CDF814B04FF0800AADF810A04FF0100567
:10128C0006954FF40060C4F201000DEB050105F06A
:10129C006FFF4FF00107ADF8107006954FF44064E6
:1012AC00C4F2010420460DEB050105F061FF4FF07F
:1012BC000206ADF81060069520460DEB050105F011
:1012CC0057FF4FF04003ADF81030069520460DEB5C
:1012DC00050105F04DFFADF810A0069520460DEB6D
:1012EC00050105F045FF4FF48073ADF810300695FD
:1012FC0020460DEB050105F03BFF4FF48003236105
:10130C004FF4000323614FF0807323614FF40050BE
:10131C00394607F06FFE4FF48050394607F06AFEED
:10132C00684607F08BF84FF06005ADF80050ADF84B
:10133C000270D8F80030ADF80630ADF808604FF404
:10134C008066C4F200063046694606F003FE30465D
:10135C004FF0080107F066FA3046694606F0E6FEE3
:10136C0030464FF0080107F0B3FA3046694606F0F4
:10137C00B5FF30464FF0080107F0ECFA304639461D
:10138C0007F050F9684607F059F8ADF80050ADF881
:10139C000270D8F80030ADF80630ADF808904FF474
:1013AC000065C4F200052846694606F0B9FC2846DB
:1013BC004FF0080107F0BEF92846694606F0CAFD51
:1013CC0028464FF0080107F02DFA2846694606F02A
:1013DC00ADFE28464FF0080107F07AFA2846394648
:1013EC0007F020F92846394607F034F830463946DC
:1013FC0007F030F8A5F82490A6F82490CDF814B096
:10140C004FF04003ADF810304FF01805069520460C
:10141C0004A905F0ADFEADF810A00695204604A970
:10142C0005F0A6FE4FF48073ADF8103006952046FB
:10143C0004A905F09DFE4846FFF7F2FA07B0BDE897
:10144C00F08F00BF70B583B004468DB24FF0010031
:10145C004FF008010AF0A4FD064604608580656122
:10146C00ADF800504FF0030301934FF010030293BB
:10147C002046694605F07CFE304603B070BD00BFC7
:10148C000368D96882880A4214BF5A611A6170478E
:10149C0046F61043C4F20003188846F60843C4F21B
:1014AC0000031B8843EA0040704700BF10B5044698
:1014BC004FF0C0504FF0010106F06EF94FF4E043CD
:1014CC00C4F200031A6842F480721A6046F60843AC
:1014DC00C4F200031C8046F61043C4F200034FEA2A
:1014EC0014441C8010BD00BF10B5FFF7D1FF4AF2A9
:1014FC00ED53CDF6CE6398422AD14FF00000FFF7A2
:10150C00D5FF4FF01D004FF0010106F017F94FF415
:10151C000070C0F230004FF0010105F0EBFE4FF40B
:10152C004064C4F2010420464FF00801FFF78AFF23
:10153C00036882885A6120464FF01001FFF782FF42
:10154C00036882885A610348D0F800D0406800478D
:10155C0010BD000000F0FF1F00B54AF2ED50CDF6B3
:10156C00CE60FFF7A3FF4FF46D43CEF200034FF0B4
:10157C000402C0F2FA52DA605DF804FB10B583B0D5
:10158C00FFF7B2FF4FF46D43CEF200035A6A42F4F8
:10159C0080225A625A6A42F400325A625A6A42F4FF
:1015AC0080325A624FF01C004FF0010106F0C6F871
:1015BC004FF400604FF0010106F0C0F84FF001004D
:1015CC00014606F0E9F84FF002004FF0010106F079
:1015DC00E3F84FF004004FF0010106F0DDF84FF492
:1015EC0000704FF0010106F0A9F84FF480604FF045
:1015FC00010106F0A3F84FF00100014606F09EF839
:10160C004FF00100014606F06BF84FF002004FF06E
:10161C00010106F065F84FF480404FF0010106F02F
:10162C008DF84FF000704FF0010106F0B5F84FF057
:10163C00C0504FF0010106F0AFF84FF6FF73ADF854
:10164C0000304FF0000402944FF40060C4F201002B
:10165C00694605F08DFD4FF44060C4F20100694607
:10166C0005F086FD4FF48050C4F20100694605F088
:10167C007FFD4FF40070C0F230004FF0010105F017
:10168C0039FE4FF4004005F099FF06F01DF9204695
:10169C0005F082FF4FF02104204606F0D9F801280E
:1016AC00FAD003B010BD00BF10B5044607F0E4FD3E
:1016BC00204607F003FE0028FAD1204607F01EFE54
:1016CC00204607F03DFE0028FAD110BD4FEAC0328B
:1016DC0040F6C833C2F200031A6040F6C433C2F2BB
:1016EC0000031860704700BF2DE9F04F72B601F08F
:1016FC0049F8044662B64FF00003C4F202031B68BB
:10170C0013F0020F14D040F6D842C2F20002106857
:10171C00156840F6A033C2F200031E8A998A71182C
:10172C00A5EBC131A0EBA111116003F1100311E085
:10173C0040F69832C2F200021068156840F6A033E9
:10174C00C2F200031E8899887118A5EBC131A0EB79
:10175C00A11111604FF00002C4F202024FF0070118
:10176C00516041F66062C2F200021278032A00F066
:10177C00BC8240F2BC22C2F200021268BAB140F242
:10178C00BC22C2F200021268944240F2BC22C2F2A5
:10179C00000211682EBFC1EB0401C943611840F669
:1017AC000032C2F200021268914240F29E8240F670
:1017BC00D445C2F20005B5F90060B3F80290DA889E
:1017CC00914440F60C30C2F2000020F81690B3F8A9
:1017DC0008809A89904440F6D031C2F2000121F879
:1017EC001680B3F80AC0DB899C4440F65042C2F222
:1017FC00000222F816C040F69433C2F2000306F140
:10180C000106B3F9007096FBF7F307FB1366B6B24B
:10181C002E8036B240F6E043C2F2000330F81600D8
:10182C001D68281A4844186040F6CC33C2F20003F5
:10183C0031F816101D68691A4144196040F6FC23F2
:10184C00C2F2000332F816201D68AA1A62441A600C
:10185C000D18AB18B3FBF7F75A2F40F2468240F243
:10186C00A023C2F200031B78002B00F03E8240F64E
:10187C009033C2F200031B689C4240F69033C2F2D4
:10188C0000031E682EBFC6EB0406F643A61940F6ED
:10189C000833C2F200031B689E4240F2268240F6D7
:1018AC00E443C2F200031B78ABB95318B0EB530FEF
:1018BC0027D340F6E443C2F200034FF001021A7042
:1018CC0040F6E423C2F2000393F90030002BD4BF9E
:1018DC001346062378E05318B0EB530F11D840F69B
:1018EC00E443C2F200034FF000021A7040F6E42306
:1018FC00C2F2000393F900309342D4BF04230323B4
:10190C0062E040F6E543C2F200031B78ABB9101855
:10191C00B1EB500F27D340F6E543C2F200034FF072
:10192C0001021A7040F6E423C2F2000393F900306E
:10193C00002BD4BF0523042346E01018B1EB500F45
:10194C0011D840F6E543C2F200034FF000021A70C2
:10195C0040F6E423C2F2000393F900309342D4BF63
:10196C000223012330E040F6E643C2F200031B7869
:10197C00ABB9B2EB550FC0F0B88140F6E643C2F2FA
:10198C0000034FF001021A7040F6E423C2F2000388
:10199C0093F90030002BD4BF0323022314E0B2EBE5
:1019AC00550F00F2A28140F6E643C2F200034FF05D
:1019BC0000021A7040F6E423C2F2000393F90030DF
:1019CC009342D4BF0623052340F68C32C2F20002A8
:1019DC001268964240F3898140F6C832C2F2000286
:1019EC001568106840F69C31C2F2000109688E42FD
:1019FC00B8BF3146C5EBC13100EBE1011160126893
:101A0C004FEAE23240F6C435C2F200052A60DBB27E
:101A1C0040F2D422C2F20002137040F2BC23C2F294
:101A2C0000034FF000021A60286829682A6840F603
:101A3C009436C2F20006B6F9003003EB430703EB11
:101A4C00870303F11A0303EBD3734FEA6303C3EB6E
:101A5C00500040F6C033C2F20003B3F90030B1FBC2
:101A6C00F3F3C01A40F62941C0F6000100F05CFF08
:101A7C0040F69033C2F200031C602968C1F38F1149
:101A8C000AB2B6F800A00FFA8AF303F10100824201
:101A9C0077DD3F2B75DC40F6D442C2F2000216888B
:101AAC0032B240F6E041C2F2000140F60C30C2F214
:101ABC00000030F8124008682018086040F6CC315D
:101ACC00C2F2000140F6D030C2F2000030F81240F1
:101ADC0008682018086040F6FC21C2F2000140F6AC
:101AEC005040C2F2000030F812400868201808601C
:101AFC0093423DDD40F60C35C2F200054FEA43033C
:101B0C00ED1840F6D034C2F20004E41840F6504010
:101B1C00C2F20000C0180FFA8AF236B2C2EB060904
:101B2C004FEA49094FF00003C2EBC2714FEA410181
:101B3C004FEA4202A846A44607466E18B61836F875
:101B4C00026CA5F1020528F803600E19B61836F8D8
:101B5C00026CA4F102042CF803600E18B61836F8C7
:101B6C00026CA0F10200FE52A3F102034B45E4D13A
:101B7C0040F69433C2F200030AF1010AA3F800A064
:101B8C008FE003F1FF339A4280F28B8009B2012976
:101B9C0040F3878040F6D442C2F20002B2F800B0A3
:101BAC000FFA8BF293423BDD40F60C35C2F2000586
:101BBC004FEA4203ED1840F6D034C2F20004E418A8
:101BCC0040F65040C2F20000C0180FFA8AF909F131
:101BDC00FF39C2EB09094FEA49094FF00003C2EB88
:101BEC00C2714FEA41014FEA4202A846A446074699
:101BFC006E18B618768805F1020528F80360661889
:101C0C00B618768804F102042CF803604618B6184E
:101C1C00768800F10200FE5203F102034B45E7D136
:101C2C000AF1FF3292B240F69433C2F200031A80EA
:101C3C000FFA8BFB12B2934506D140F6D443C2F295
:101C4C0000034FF000021A8040F6D443C2F20003A6
:101C5C00B3F9001040F6E043C2F2000340F60C3238
:101C6C00C2F2000232F811201868821A1A6040F68B
:101C7C00CC33C2F2000340F6D032C2F2000232F88A
:101C8C0011201868821A1A6040F6FC23C2F2000375
:101C9C0040F65042C2F2000232F8112019688A1A3A
:101CAC001A6040F6C433C2F200031A6840F60833D7
:101CBC00C2F2000302EB42024FEA92021A6040F6B3
:101CCC009833C2F200031A6840F6DC43C2F20003F8
:101CDC001B689A4209DD40F69833C2F200031A6879
:101CEC0040F6DC43C2F200031A60BDE8F08F00BF7F
:101CFC002DE9F04341F60073C2F20003D3F83080B3
:101D0C00D3F84090DE6B5F6B9C6B40464FF07E517E
:101D1C0009F0D0FA002809DC404609F081F86BA3E1
:101D2C000CCB09F0F3FD002803DB06E04FF07E58E6
:101D3C0003E04CF6CD48C3F64C5848464FF0000132
:101D4C00C4F2F01109F0B6FA002809DC484609F093
:101D5C0067F860A30CCB09F0D9FD002805DB08E07F
:101D6C004FF00009C4F2F01903E04CF6CD49C3F66C
:101D7C00CC5930464FF00001C4F2C82109F09AFA50
:101D8C00002807DC30464FF0000109F093FA0028D8
:101D9C0005DB06E04FF00006C4F2C82601E04FF068
:101DAC00000638464FF00001C4F2FA3109F082FA0D
:101DBC00002809DC38464FF00001C4F2A01109F0EC
:101DCC0079FA002805DB08E04FF00007C4F2FA3777
:101DDC0003E04FF00007C4F2A01720464FF48041F7
:101DEC00C4F29C6109F066FA002809DC20464FF029
:101DFC000001C4F27A4109F05DFA002805DB08E025
:101E0C004FF48044C4F29C6403E04FF00004C4F22D
:101E1C007A4440F6D045C2F20005404649F69A1184
:101E2C00C4F24B2109F0ECF84FF00001C4F27A41F6
:101E3C0009F050F9014643F26020C3F2532009F037
:101E4C0049F9286040F6C035C2F20005484645F213
:101E5C005551C3F6D57109F0D3F801464FF0000087
:101E6C00C4F2C82009F036F908F084FF288040F647
:101E7C000035C2F200053046314609F02BF808F067
:101E8C0079FF286040F68C35C2F200053846394699
:101E9C0009F020F808F06EFF286040F69C35C2F27D
:101EAC0000052046214609F015F808F063FF28606C
:101EBC0041F60073C2F20003C3F83080C3F84090BF
:101ECC00DE635F639C63BDE8F08300BF9A999999C8
:101EDC009999A93F9A9999999999B93F2DE9F04304
:101EEC0093B0FFF705FF40F69433C2F200034FF0B6
:101EFC0040021A804FF00804C4F20204204607F096
:101F0C0059FC42F24C43C4F20103029340F6A03355
:101F1C00C2F2000303934FF0000604964FF008073B
:101F2C00059706964FF0800307934FF400730893C0
:101F3C004FF4006309934FF020030A934FF440537E
:101F4C000B930C9620460DEB070107F05DFD204628
:101F5C004FF006014FF0010207F0B0FE4FF0070002
:101F6C0007F076FF20464FF0010107F03DFE4FF0E1
:101F7C000B038DF800304FF001048DF801408DF803
:101F8C0002600194684607F081FF4FF48038CDF869
:101F9C0034800E940F944FF46029CDF84090119634
:101FAC008DF848704FF41055C4F2010528460DA960
:101FBC0007F04EF828464FF005012246234607F05D
:101FCC0011FA28464FF005014FF00202234607F0A4
:101FDC0009FA28464FF002014FF00302234607F09E
:101FEC0001FA28464FF002014FF00402234607F095
:101FFC00F9F928464FF004014FF00502234607F08B
:10200C00F1F928464FF004014FF00602234607F081
:10201C00E9F928464FF002014FF00702234607F07A
:10202C00E1F928464FF002013A46234607F0DAF967
:10203C002846214607F0F4F8CDF834800E940F941E
:10204C00CDF8409011968DF848704FF42056C4F29C
:10205C00010630460DA906F0FBFF3046214622460C
:10206C00234607F0BFF9304621464FF002022346C3
:10207C0007F0B8F930464FF003010A46234607F043
:10208C00B1F930464FF003014FF00402234607F03C
:10209C00A9F9304621464FF00502234607F0A2F974
:1020AC00304621464FF00602234607F09BF9304696
:1020BC004FF003014FF00702234607F093F9304627
:1020CC004FF003013A46234607F08CF9304621467F
:1020DC0007F020FA2846214607F070F82846FFF74B
:1020EC00E3FA3046214607F069F83046FFF7DCFA90
:1020FC0040F60833C2F2000340F69C32C2F20002F2
:10210C0012681A602846214607F020FB304621460B
:10211C0007F01CFB28464FF005012246234607F02A
:10212C009FFA30464FF004012246234607F098FAF6
:10213C002846214607F062FA3046214607F05EFA3F
:10214C0028464FF4E04107F017FA30464FF4E041CF
:10215C0007F012FA2846214607F012F913B0BDE831
:10216C00F08300BF00B540F6E843C2F2000303F56C
:10217C00805251685B184FF04401C4F20201CB60ED
:10218C0011685368994209D9CB1A4FF04402C4F232
:10219C00020253600C4B1A685A600AE0C3F5805374
:1021AC004FF04402C4F2020253604FF00002064B9F
:1021BC005A604FF04400C4F202004FF0010107F0E6
:1021CC0013FD5DF804FB00BFE81C002000B540F6D1
:1021DC00E843C2F2000303F580521168C0B25854B0
:1021EC0001F101034FEA03534FEA135313604FF00D
:1021FC004403C4F202031B6813F0010F01D1FFF773
:10220C00B1FF5DF804FB00BF4FF05803C4F20203AA
:10221C005868034B1B69C01A18BF0120704700BFD8
:10222C00E81D002040F6E843C2F2000303F5885293
:10223C0011695B1A03F58853187A01F1FF331361A6
:10224C001BB94FF48072014B1A617047E81D0020D6
:10225C0010B50446007828B1FFF7B8FF14F8010F49
:10226C000028F9D110BD00BF00B584B000904FF02C
:10227C000003ADF80430ADF80630ADF80830ADF819
:10228C000C304FF00C03ADF80A304FF46050C4F230
:10229C000100694607F05EFE04B000BD2DE9F04F69
:1022AC0090B04FF0000406944FF08009CDF81C90CC
:1022BC00089409944FF480530B930C944FF40073CF
:1022CC00ADF834304FF003030E934FF018030F9317
:1022DC004FF40065C4F2010528460DA904F048FF2F
:1022EC004FF48063ADF834304FF048030F93284619
:1022FC000DA904F03DFF4FF00E038DF800304FF0A8
:10230C00020B8DF801B08DF802404FF00108CDF8AA
:10231C000480684607F0BAFD40F6E846C2F20006B3
:10232C0006F5885ACAF80C40CAF8084006F58056DB
:10233C00746046F8084B41F60073C2F200039868CB
:10234C0008F018FDFFF790FF4FF05805C4F2020596
:10235C00284607F02FFA43F60407C4F20107029748
:10236C000396049406940894CDF81C9009944FF4A9
:10237C00807305934FF020030A93284602A907F0B7
:10238C0043FB2846414607F02FFC4FF46056C4F23D
:10239C00010630464FF04001424607F03FFF284609
:1023AC0007F000FDCAF810004FF04405C4F2020516
:1023BC00284607F0FFF902974FF010030493069498
:1023CC000894CDF81C9009940A94284602A907F0A9
:1023DC001BFB28465946424607F070FC6C603046A1
:1023EC004946424607F01AFF3046414607F0D2FEF6
:1023FC0010B0BDE8F08F00BF00B54FF4005007F0EF
:10240C0027FD4FF04400C4F202004FF0000107F02A
:10241C00EBFB044B1A685B689A4201D0FFF7A2FEF3
:10242C005DF804FBE81C002030B541F60074C2F2E4
:10243C000004A06808F09EFC08F00AFC0546A060A9
:10244C004FF00001C4F2166108F034FF002805DAE1
:10245C004FF00002C4F21662A26011E028464FF061
:10246C000001C4F6611108F025FF002808DD41F6D3
:10247C000073C2F200034FF00002C4F661129A60BE
:10248C0041F60073C2F20003986808F073FCFFF782
:10249C00EBFE30BD4FF43052C4F20102938923F0AD
:1024AC0006034FEA03434FEA13439381704700BF7F
:1024BC004FF43053C4F201039A8E1A8F9A8992B258
:1024CC0042F006029A8170474FF43053C4F2010374
:1024DC009A8922F006024FEA02424FEA124242F077
:1024EC000402998E198F9A81704700BF10B54FF472
:1024FC003053C4F201031A8A12F0040F14BF0020E7
:10250C0001209A8E92B21B8F9CB240F2A023C2F291
:10251C0000031B7853B948B1131BB3F5F07F05DDED
:10252C00B3F5117F02DA03F071FA10BD40F2942377
:10253C00C2F20003197871BB41F6FE51C2F20001E0
:10254C00B1F900309A4226DB41F60E63C2F2000369
:10255C00B3F900309A421EDC41F6FC53C2F2000380
:10256C00B3F900309C4216DB41F60063C2F2000363
:10257C00B3F900309C420EDCB0B941F61063C2F2E4
:10258C0000031A6841F60463C2F200031A60204685
:10259C0000F0A0FB10BD40F29423C2F200031B78A4
:1025AC00042B01D103F0DAFC10BD00BF70B541F66D
:1025BC000074C2F20004A66FE06D08F0DBFB08F0BB
:1025CC0047FBE06541F6FE55C2F2000508F0D2FB70
:1025DC002880206E08F0CEFB08F03AFB206641F60E
:1025EC000E65C2F2000508F0C5FB2880606E08F08D
:1025FC00C1FB08F02DFB606641F6FC55C2F20005EC
:10260C0008F0B8FB2880A06E08F0B4FB08F020FBA3
:10261C00A06641F60A65C2F2000508F0ABFB288003
:10262C00E06E08F0A7FB08F013FBE06641F60C65C2
:10263C00C2F2000508F09EFB2880206F08F09AFB80
:10264C0008F006FB206741F60065C2F2000508F0B1
:10265C0091FB2880606F08F08DFB08F0F9FA606739
:10266C0041F60864C2F2000408F084FB2080304676
:10267C004FF00001C4F27A4108F01CFE002809DB7F
:10268C0030464FF48041C4F29C6108F013FE0028E0
:10269C0005DC08E04FF00006C4F27A4603E04FF484
:1026AC008046C4F29C6641F60073C2F200039E673A
:1026BC0070BD00BFF0B58BB0FFF778FF4FF480739F
:1026CC00ADF820304FF004070A974FF0030309933D
:1026DC004FF40060C4F2010008A904F049FD4FF06A
:1026EC001B038DF818304FF002038DF819304FF0A2
:1026FC0001068DF81A60079606A807F0C7FB684616
:10270C0005F092FE4FF04703ADF800304FF6FF7323
:10271C00ADF804304FF00005ADF802504FF43054D2
:10272C00C4F201042046694605F002FAADF80C50DB
:10273C00ADF80E50ADF81060ADF812504FF0080324
:10274C00ADF81430204603A906F0D0FA20464FF01D
:10275C00500105F007FF2046394606F03FF92046A8
:10276C004FF0800106F092F92046314605F072FEDA
:10277C00A38E238FA3899BB243F00603A3810BB0D6
:10278C00F0BD00BF4FF080439B8C9BB241F61662AC
:10279C00C2F2000212889A4207D941F61462C2F2C0
:1027AC000002118801F10101118041F61662C2F29A
:1027BC000002138041F61462C2F20002128843EA4E
:1027CC00024241F61063C2F200031A6018687047A7
:1027DC004FF080439B8C9BB203EB400080B2834252
:1027EC0005D94FF08042938C9BB29842FBD34FF0AB
:1027FC008042938C9BB29842FBD8704700B54FF047
:10280C008040838923F002034FEA03434FEA1343CA
:10281C0083814FF0020106F06DFB5DF804FB00BFF5
:10282C0000B54FF08040838923F004034FEA034343
:10283C004FEA134383814FF0040106F05BFB5DF814
:10284C0004FB00BF00B54FF08040838923F00803E0
:10285C004FEA03434FEA134383814FF0080106F01C
:10286C0049FB5DF804FB00BF30B589B04FF01C0389
:10287C008DF81C304FF001058DF81D504FF0000401
:10288C008DF81E4008950DEB030007F0FFFA4FF092
:10289C002303ADF810304FF6FF73ADF81430ADF8DC
:1028AC001640ADF812404FF0804004A905F040F9F5
:1028BC00FFF7A4FFFFF7B4FFFFF7C4FF684605F06E
:1028CC00BDFD4FF02003ADF80030ADF80250ADF86F
:1028DC0008404FF08040694605F022FA4FF08040E6
:1028EC00214605F027FF4FF08040694605F032FB8A
:1028FC004FF08040214605F095FF4FF0804069462F
:10290C0005F014FC4FF08040214605F0E1FF4FF03C
:10291C008040294605F086FE4FF08040294605F0A0
:10292C0099FD09B030BD00BF00B502280DDC4FF099
:10293C008040838923F002034FEA03434FEA134399
:10294C008381104688475DF804FB41F61863C2F298
:10295C00000319605A604FF080439A8C801880B243
:10296C0098864FF6FD721A829A8992B242F0020250
:10297C009A815DF804FB00BF00B502280DDC4FF016
:10298C008040838923F004034FEA03434FEA134347
:10299C008381104688475DF804FB41F61863C2F248
:1029AC0000039960DA604FF080439A8C801880B2F3
:1029BC0018874FF6FB721A829A8992B242F004027F
:1029CC009A815DF804FB00BF00B502280DDC4FF0C6
:1029DC008040838923F008034FEA03434FEA1343F3
:1029EC008381104688475DF804FB41F61863C2F2F8
:1029FC00000319615A614FF080439A8C801880B2A1
:102A0C0098874FF6F7721A829A8992B242F00802AE
:102A1C009A815DF804FB00BF00B54FF080404FF089
:102A2C00020106F0D3F9A8B14FF080424FF6FD73C6
:102A3C001382938923F002034FEA03434FEA1343B3
:102A4C00938141F61863C2F2000358681B689847DB
:102A5C005DF804FB4FF080404FF0040106F0B6F92E
:102A6C00A8B14FF080424FF6FB731382938923F089
:102A7C0004034FEA03434FEA1343938141F618636F
:102A8C00C2F20003D8689B6898475DF804FB4FF0CE
:102A9C0080404FF0080106F099F998B14FF0804250
:102AAC004FF6F7731382938923F008034FEA03431D
:102ABC004FEA1343938141F61863C2F2000358693D
:102ACC001B6998475DF804FB704700BF4FF000008E
:102ADC00704700BF10B504464FF00000FDF790FFA3
:102AEC00FFF79EFE40F2A023C2F200034FF000025B
:102AFC001A70FFF7DDFC40F2AC23C2F200031B6836
:102B0C001A689B88136140F29823C2F200031B6879
:102B1C001A689B88536141F66C63C2F200031C7007
:102B2C0010BD00BFF0B54FF00000FDF769FFFFF7D7
:102B3C0077FE40F29823C2F200031B681A689B8848
:102B4C00136140F2AC23C2F200031B681A689B8825
:102B5C00536141F66063C2F200031B78032B07D16B
:102B6C0040F2A023C2F200034FF004021A7018E0E6
:102B7C0040F2A023C2F200034FF001021A7040F29F
:102B8C009423C2F200031B78934206D141F6606392
:102B9C00C2F200034FF000021A704FF00000FDF774
:102BAC00CBFE41F66063C2F200031B784FF00004C9
:102BBC004FF096054FF4167641F66067C2F20007A7
:102BCC0028463146FDF7B8FF42F21070FFF700FEC1
:102BDC0004F101043B7803F10103A342F0DCF0BDE6
:102BEC0000B541F66063C2F200034FF000001870AC
:102BFC00FDF706FF5DF804FB10B504464FF000012D
:102C0C0008F058FB002808DA20464FF00001C4F207
:102C1C00C82108F04FFB002820DC41F66063C2F2AB
:102C2C0000034FF000001870FDF786FE40F2CC2335
:102C3C00C2F20003186808F00BF8214608F0E0F91E
:102C4C004DF20A71C3F6234108F0DAF908F0B2F834
:102C5C0080B2FDF7D5FE4FF0010010BD4FF0000023
:102C6C0010BD00BF41F65063C2F200034FF00002EA
:102C7C001A60704700B540F2A023C2F200031B7823
:102C8C00012B24D1FFF7EEFF41F60073C2F20003D3
:102C9C00D3F890004FF0000108F00CFBA8B941F6F6
:102CAC000073C2F20003D3F898004FF0000108F053
:102CBC0001FB50B940F2A023C2F200034FF0030213
:102CCC001A70FEF73FF85DF804FBFEF717F85DF895
:102CDC0004FB00BFF0B584B241F60073C2F20003EE
:102CEC00D3F8A45028464FF0000108F0E3FAE8B1FD
:102CFC0041F64C66C2F200062846316808F080F9AD
:102D0C000746204607F0D4FF0146384608F0E2F8A3
:102D1C00044628464FF07E5108F0DCF80146204668
:102D2C0008F0D8F9306008F045F884B240F2A023DE
:102D3C00C2F200031B78042B40F0D68041F680636E
:102D4C00C2F200031B88A34200F0CE8041F6606300
:102D5C00C2F200031B78CBB941F60A63C2F200033E
:102D6C00B3F90020A11A40F2CC23C2F20003186878
:102D7C0000FB01F041F60C63C2F20003B3F9003022
:102D8C009A1A90FBF2F0FDF73BFEA7E041F6606368
:102D9C00C2F200031B78012B2DD141F60073C2F255
:102DAC0000039D6F41F60A63C2F20003B3F90060A1
:102DBC00A01B07F04DFF0146284608F021F90746F5
:102DCC0041F60C63C2F20003B3F90000801B07F05C
:102DDC003FFF0146384608F07DF906462846314645
:102DEC0008F068FA0028A8BF354641F66463C2F2C1
:102DFC0000031D6072E041F66063C2F200031B78B1
:102E0C00022B61D141F60A63C2F20003B3F9005000
:102E1C00601B07F01DFF41F63863C2F2000319680E
:102E2C0008F0EEF8064641F60C63C2F20003B3F963
:102E3C000000401B07F00CFF0146304608F04AF931
:102E4C0005464FF0000108F035FA002828DD41F660
:102E5C000076C2F20006D6F88810084608F0D0F8C2
:102E6C000746D6F88C004FF0814108F0C9F8294686
:102E7C0008F0C6F80146384608F02CF808F0EAFECF
:102E8C00D6F8881008F024F80546D6F88C100846B9
:102E9C0008F020F80146284608F01CF9064601E027
:102EAC004FF0000641F60073C2F200039D6F2846F6
:102EBC00314608F0FFF90028A8BF354641F6646397
:102ECC00C2F200031D6009E041F66063C2F2000328
:102EDC001B78032B02D12046FDF7F8FC41F68063EA
:102EEC00C2F200031C804CE040F2A023C2F20003AB
:102EFC001B78022B06D040F2A023C2F200031B78F1
:102F0C00032B13D141F60A63C2F20003B3F900306C
:102F1C009C420BDC4FF00000FDF772FD40F2A02349
:102F2C00C2F200034FF004021A702AE040F2A02310
:102F3C00C2F200031B78EBB941F6FC53C2F200035A
:102F4C00B3F900309C4215DD41F60A63C2F200036E
:102F5C00B3F900309C420DDC41F64063C2F2000331
:102F6C001A7802F10102D2B21A70142A09D9FFF7A9
:102F7C00D9FD06E041F64063C2F200034FF00002B7
:102F8C001A7040F2A023C2F200031B78012B09D166
:102F9C0041F60863C2F20003B3F900309C4201DB36
:102FAC00FFF768FEF0BD00BFF0B584B240F2A0237D
:102FBC00C2F200031B78042B40F0918041F6606351
:102FCC00C2F200031B78A3B940F2CC23C2F2000377
:102FDC001B6803FB04F448F20103C8F2000383FBF3
:102FEC00042000194FEAE474C4EBE030FDF708FD4F
:102FFC00F0BD41F66063C2F200031B78012B1FD1B8
:10300C0041F60073C2F200039D6F204607F020FECC
:10301C000146284607F0F4FF4FF08001C3F280719F
:10302C0007F0EEFF04462846214608F043F9002835
:10303C00A8BF254641F66463C2F200031D60F0BDD3
:10304C0041F66063C2F200031B78022B51D141F6AA
:10305C000075C2F20005D5F88810084607F0D0FFBD
:10306C000746D5F88C004FF0814107F0C9FF0646A2
:10307C00204607F0EDFD41F63863C2F200031968F3
:10308C0007F0BEFF4FF08001C3F2807107F0B8FF6C
:10309C000146304607F0B4FF0146384607F01AFFE8
:1030AC0008F0D8FDD5F8881007F012FF0446D5F8C3
:1030BC008C10084607F00EFF0146204608F00AF86F
:1030CC000446AD6F2846214608F0F4F80028A8BF46
:1030DC00254641F66463C2F200031D60F0BD40F268
:1030EC00A023C2F200031B78012B02D10CB1FFF715
:1030FC00C1FDF0BD30B586B04FF4803007F0A6F9B5
:10310C004FF4803302934FF0000503954FF0080302
:10311C0004934FF0010405940DEB030007F0CCF879
:10312C008DF800408DF801508DF8025001946846DE
:10313C0006F0ACFE284607F0AFF9204607F09AF9E6
:10314C0006B030BD2DE9F04703F046F840F6D84301
:10315C00C2F20003186841F63464C2F2000407F0AE
:10316C0077FD46F29C51C3F2CA3107F049FF20604B
:10317C0040F69833C2F20003186841F66864C2F254
:10318C00000440F60433C2F200031B68C01A07F0B7
:10319C005FFD40F6D043C2F20003196807F030FF20
:1031AC00206041F66063C2F200031B78032B03D14D
:1031BC00FDF74AFA00F012BC72B641F61063C2F287
:1031CC0000031A6840F69033C2F200031C6841F603
:1031DC000463C2F20003196862B640F2A023C2F283
:1031EC0000031B78032B1CD140F6E823C2F200032A
:1031FC00186840F2B623C2F20003B3F900308342E0
:10320C000FD240F2A023C2F200034FF004021A7056
:10321C0040F2AC23C2F200031B681A689B8813614E
:10322C00B9E040F2A023C2F200031B78002B00F09F
:10323C008980A2422EBFC4EB0204E443A41840F2DE
:10324C009423C2F200031B7883B98A422EBFC1EBD0
:10325C000202C9438A184FF4D453C0F206039A42AF
:10326C0020D94FF00300FFF735FC1BE040F294230C
:10327C00C2F200031B78032B14D142F23003C2F2CA
:10328C0000031B689A422EBFC3EB0202DB439A1861
:10329C004FF4D451C0F206018A4203D94FF0080012
:1032AC00FFF718FC40F2A023C2F200031B78022B9C
:1032BC0016D94AF22013C0F207039C4210D940F2EF
:1032CC00E023C2F200031B68002B04DD4FF0020068
:1032DC00FFF700FC5FE0FFF725FCFFF7F5F85AE07D
:1032EC0040F2A023C2F200031B78022B18D940F243
:1032FC00C423C2F200031A6840F2BA23C2F20003DC
:10330C00B3F9003093420BD240F2E023C2F2000337
:10331C001B68002B3FDD4FF00100FFF7DBFB3AE0B1
:10332C0040F2A023C2F200031B78012B33D140F6EC
:10333C009833C2F200031A6840F60433C2F2000359
:10334C001A6028E040F2A023C2F200031B7813BBE2
:10335C0041F63063C2F200031B6848F21F52C5F2FB
:10336C00EB12A2FB03124FEA92124FF0C80101FBC1
:10337C00123383B940F69833C2F200031A6840F650
:10338C000433C2F200031A6040F29823C2F2000325
:10339C001868FEF775F840F2A023C2F200031B7800
:1033AC00032B40F22C8241F64863C2F200031D68E5
:1033BC0040F6C833C2F200031E6841F63C64C2F208
:1033CC0000042846216807F01BFE804641F6746312
:1033DC00C2F2000318684FF08E4107F011FE074649
:1033EC00304607F035FC0146384607F073FE0646BA
:1033FC004FF07E50294607F06BFD0146304607F032
:10340C00FFFD0146404607F065FD0546206041F68C
:10341C006063C2F200031B78012B40F0F48041F68C
:10342C006463C2F200031E6841F65063C2F20003EB
:10343C00D3F800903046314607F0E2FD41F60074B7
:10344C00C2F20004616907F0DBFD07463046A16952
:10345C0007F0D6FD0146384607F03CFD41F63463D3
:10346C00C2F20003196807F035FE044640F2CC2383
:10347C00C2F20003186807F0EBFB0146204607F088
:10348C00BFFD82463046294607F022FD04464FF028
:10349C000001C4F27A4107F00DFF002807DC20463A
:1034AC004FF0000107F006FF00281FDD03E04FF08E
:1034BC000004C4F27A4441F65463C2F2000320467D
:1034CC00196807F09DFD804641F65066C2F2000671
:1034DC0041F64463C2F200032046196807F090FDE0
:1034EC000146484607F0F6FC306025E041F654638F
:1034FC00C2F200032046196807F082FD41F60076FF
:10350C00C2F20006D6F8801007F07AFD804641F62C
:10351C005067C2F2000741F64463C2F20003204632
:10352C00196807F06DFDD6F8841007F069FD0146A7
:10353C00484607F0CFFC386040F2DE23C2F20003AD
:10354C0093F900307BB328464FF00001C4F296315A
:10355C0007F0B0FE002804DA4FF00000FDF7ECF99C
:10356C0021E020464FF00001CCF2C82107F0A2FE6A
:10357C00002804DC4FF00100FDF7DEF913E040F207
:10358C00B823C2F2000393F9003063B120464FF028
:10359C000001CCF2C81107F08DFE002803DD4FF0BE
:1035AC000000FDF7C9F940F2CC23C2F20003186801
:1035BC0007F04EFB044641F65063C2F2000340464E
:1035CC00196807F087FC4CF23E31C3F62E2107F048
:1035DC0017FD214607F014FD0146504607F07AFC12
:1035EC0005462046294607F065FE002805DC41F615
:1035FC005063C2F20003C3F80090284607F0BAFBF0
:10360C00FDF7FEF902E141F66063C2F200031B789C
:10361C00022B40F0FB8041F66463C2F200031E688B
:10362C0041F65063C2F20003D3F8009030463146A5
:10363C0007F0E6FC41F60074C2F20004616907F081
:10364C00DFFC07463046A16907F0DAFC0146384634
:10365C0007F040FC41F63463C2F20003196807F02E
:10366C0039FD044640F2CC23C2F20003186807F07F
:10367C00EFFA0146204607F0C3FC82463046294645
:10368C0007F026FC04464FF00001C4F27A4107F023
:10369C0011FE002807DC20464FF0000107F00AFE5F
:1036AC0000281FDD03E04FF00004C4F27A4441F619
:1036BC005463C2F200032046196807F0A1FC80464F
:1036CC0041F65066C2F2000641F64463C2F20003B2
:1036DC002046196807F094FC0146484607F0FAFBAF
:1036EC00306025E041F65463C2F2000320461968AD
:1036FC0007F086FC41F60076C2F20006D6F8801080
:10370C0007F07EFC804641F65067C2F2000741F696
:10371C004463C2F200032046196807F071FCD6F826
:10372C00841007F06DFC0146484607F0D3FB386067
:10373C0040F2DE23C2F2000393F900307BB328463B
:10374C004FF00001C4F2963107F0B4FD002804DA02
:10375C004FF00000FDF7F0F821E020464FF000019B
:10376C00CCF2C82107F0A6FD002804DC4FF00100C4
:10377C00FDF7E2F813E040F2B823C2F2000393F92C
:10378C00003063B120464FF00001CCF2C81107F0B5
:10379C0091FD002803DD4FF00000FDF7CDF840F25D
:1037AC00CC23C2F20003186807F052FA044641F623
:1037BC005063C2F200034046196807F08BFB4CF2D1
:1037CC003E31C3F62E2107F01BFC214607F018FCF6
:1037DC000146504607F07EFB05462046294607F079
:1037EC0069FD002805DC41F65063C2F20003C3F802
:1037FC000090284607F0BEFAFDF702F906E041F604
:10380C003C63C2F200034FF000021A6040F2E02366
:10381C00C2F200031D6841F60073C2F200031C6D76
:10382C0020464FF0000107F045FD002840F3CA8008
:10383C0041F60073C2F20003DF6938464FF0000115
:10384C0007F038FD002853D041F63C63C2F2000368
:10385C00D3F8008041F67063C2F20003D3F80090F5
:10386C0041F60076C2F200064046316A07F0C8FB0A
:10387C000146384607F02EFB07462046716A07F0D2
:10388C00BFFB0146384607F025FB04464046B16AAB
:10389C0007F0B6FB494607F0B3FB0146204607F09C
:1038AC0019FB04464846F16A07F0AAFB014620467C
:1038BC0007F010FB044640F2CC23C2F20003186858
:1038CC0007F0C6F941F63463C2F20003196807F039
:1038DC0001FC0146204607F093FB07F04BFA8542AA
:1038EC0040F2D023C2F20003CCBF18601D606EE022
:1038FC0040F2D026C2F20006306807F0A9F907465C
:10390C0040F2CC23C2F20003186807F0A1F94DF283
:10391C000A71C3F6234107F073FB0146384607F0E2
:10392C00D9FA07F027FA3060854200DA356040F2A8
:10393C00D023C2F200031E6841F66863C2F2000392
:10394C001868214607F0C4FA054641F65C64C2F2D9
:10395C000004216807F0BEFA20604FF0000107F068
:10396C00A9FC002802DA4FF00002226041F65C63E9
:10397C00C2F2000318684FF07C5107F041FB04467B
:10398C0028464FF00001C4F2201107F039FB054620
:10399C004FF0000107F08EFC0028B8BF0025304620
:1039AC0007F056F9214607F093FA294607F090FAEA
:1039BC0007F0E0F940F2D023C2F2000320EAE070F5
:1039CC00186004E040F2D023C2F200031D6040F204
:1039DC00D023C2F200031868FCF7DEFF41F6306317
:1039EC00C2F200031B684CF6CD42CCF6CC42A2FBD3
:1039FC0003124FEA920202EB820293423FD140F251
:103A0C00B025C2F20005286840F2A423C2F20003DC
:103A1C001F6841F67C66C2F2000641F68464C2F26D
:103A2C0000042368C01A07F043F94FF00001C4F2F8
:103A3C00C82107F0E5FA804640F28C23C2F200035D
:103A4C001B6803EB83034FEA430044F6D353C1F2E4
:103A5C006203A3FB00204FEAD010B0FBF7F007F095
:103A6C0027F90146404607F035FB30602B68236090
:103A7C0040F2A823C2F200034FF000021A6041F694
:103A8C003063C2F200031A6802F101021A60BDE849
:103A9C00F08700BF00B54FF4803006F089FCB8B158
:103AAC004FF00400FFF716F840F2AC23C2F200030B
:103ABC001B681A689B88536140F29823C2F200037A
:103ACC001B681A689B8853614FF4803006F0BEFC6B
:103ADC005DF804FBF0B541F60074C2F200046068B6
:103AEC0007F048F90646256D41F66D67C2F20007EE
:103AFC00D4F8C00007F05EF93870032E88BF00269A
:103B0C0028464FF00001C4F2962107F0D3FB0028A1
:103B1C0007DC28464FF0000107F0CCFB002805DB42
:103B2C0006E04FF00005C4F2962501E04FF00005C9
:103B3C0041F67467C2F2000741F60074C2F2000449
:103B4C00A06D4FF00001C4F2C00107F059FA014614
:103B5C004EF2C010C4F6645007F0BCFA3860284628
:103B6C0008F078F841F67063C2F200031860A06D9B
:103B7C0007F000F907F06CF8A065304607F068F81C
:103B8C006060256541F66D63C2F20003187807F09A
:103B9C008FF8C4F8C000A56F41F63866C2F2000673
:103BAC002846D4F8881007F02BFA074628462946F1
:103BBC0007F026FAD4F88C1007F022FA01463846A2
:103BCC0007F088F9306041F65463C2F20003E268F2
:103BDC001A6041F64465C2F2000520694FF00001FD
:103BEC00C4F27A4107F00CFA4FF00001C4F2FA412A
:103BFC0007F070FA286041F64865C2F20005D4F867
:103C0C00A8004FF00001C4F27A4107F0F9F94FF027
:103C1C000001C4F2FA4107F05DFA2860F0BD00BF64
:103C2C0000B5FFF767FAFFF755FF41F60073C2F2D4
:103C3C000003586807F0BEF841F66063C2F2000357
:103C4C00187040F28C23C2F200031A6844F6D35366
:103C5C00C1F26203A3FB0212C2F3D71202F1FF32CC
:103C6C004EF21003CEF200035A604FF46D42CEF2C6
:103C7C0000024FF0F00182F823104FF00001996020
:103C8C004FF0070119604FF0200382F823305DF8E4
:103C9C0004FB00BF00B540F2A023C2F200031B7866
:103CAC00012B08D940F2D003C2F200031868FEF7CA
:103CBC00CFFA5DF804FB4DF6C840C0F60000FEF7E5
:103CCC00C7FA41F6FC63C2F200034FF000021A601F
:103CDC0041F65863C2F200034FF001021A705DF80E
:103CEC0004FB00BF10B541F6A864C2F200044DF607
:103CFC00EC41C0F6000141F6EC62C2F20002204633
:103D0C0008F088F92046FEF7A3FA10BD2DE9F04320
:103D1C0081B040F2D023C2F20003186806F098FF7D
:103D2C00044640F2CC23C2F20003186806F090FF60
:103D3C000146204607F0CEF9814640F29423C2F2A8
:103D4C000003197841F6A864C2F200044DF6FC4554
:103D5C00C0F600054DF60852C0F6000240F2BC0356
:103D6C00C2F2000353F821302046294608F052F9DC
:103D7C002046FEF76DFA41F66063C2F20003197833
:103D8C004DF61452C0F6000240F2A803C2F2000332
:103D9C0053F821302046294608F03CF92046FEF71E
:103DAC0057FA40F2A023C2F2000319784DF62052C4
:103DBC00C0F6000240F2D403C2F2000353F82130E3
:103DCC002046294608F026F92046FEF741FA4DF622
:103DDC002C56C0F600064DF63C55C0F6000541F6D3
:103DEC007C63C2F20003186807F01AF803460091CE
:103DFC00204631462A4608F00DF92046FEF728FAEF
:103E0C0040F6C433C2F2000318684DF64C55C0F6A8
:103E1C0000054FEA500006F04BFF07F001F803468F
:103E2C000091204631462A4608F0F4F82046FEF769
:103E3C000FFA40F2C023C2F200031B684DF658572C
:103E4C00C0F600074DF66452C0F600022046394613
:103E5C0008F0E0F82046FEF7FBF94DF67055C0F679
:103E6C00000548464FF00001C4F2C82107F0C8F81D
:103E7C0006F0D6FF03460091204631462A4608F04C
:103E8C00C9F82046FEF7E4F94DF67C55C0F600055E
:103E9C0041F63C63C2F20003186806F0C1FF03460A
:103EAC000091204631462A4608F0B4F82046FEF729
:103EBC00CFF94DF68055C0F6000541F66863C2F2A5
:103ECC000003186806F0ACFF03460091204631460B
:103EDC002A4608F09FF82046FEF7BAF94DF68C55A5
:103EEC00C0F6000541F67863C2F20003186806F0CC
:103EFC0097FF03460091204631462A4608F08AF87F
:103F0C002046FEF7A5F94DF69855C0F6000541F68A
:103F1C003468C2F20008D8F8000006F081FF0346AE
:103F2C000091204631462A4608F074F82046FEF7E8
:103F3C008FF94DF6A455C0F600054846D8F8001088
:103F4C0007F05EF806F06CFF034600912046314600
:103F5C002A4608F05FF82046FEF77AF94DF6B05283
:103F6C00C0F6000241F66C63C2F200031B782046D7
:103F7C00394608F04FF82046FEF76AF94DF6BC5268
:103F8C00C0F6000242F23003C2F200039B7E2046D0
:103F9C00394608F03FF82046FEF75AF901B0BDE863
:103FAC00F08300BFF0B54DF6C850C0F60000FEF728
:103FBC004FF94DF6D834C0F6000404F1E4054FF087
:103FCC0020064DF66067C0F600072068FEF740F942
:103FDC003046FEF7FBF86068FEF73AF93846FEF714
:103FEC0037F904F10C04AC42EFD1F0BD30B50568E3
:103FFC000C68204608F0C6F802462846214608F010
:10400C0045F830BD00B540F2A023C2F200031B7886
:10401C003BB94DF6E050C0F60000FEF719F95DF81B
:10402C0004FB40F2A023C2F200031B78012B07D93A
:10403C004DF6FC50C0F60000FEF70AF95DF804FBE3
:10404C00FEF718FE4DF61460C0F60000FEF700F9FE
:10405C005DF804FB00B540F2A023C2F200031B780C
:10406C003BB14DF62460C0F60000FEF7F1F85DF8A8
:10407C0004FB4DF64060C0F60000FEF7E9F84FF681
:10408C00FF70FEF7A5FBFDF767FA5DF804FB00BFB8
:10409C0010B504464DF66460C0F60000FEF7D8F883
:1040AC002068FEF7D5F84FF02000FEF78FF8606817
:1040BC00FEF7CEF84DF66060C0F60000FEF7C8F8CB
:1040CC0010BD00BF10B581B004464EF22403C0F6FB
:1040DC000003084619460DF1020207F0B1FF012852
:1040EC0003D02046FFF7D4FF2CE0BDF80230642B40
:1040FC0006D94DF66C60C0F60000FEF7A9F821E079
:10410C00CBB141F6FC62C2F200024FF4FA6191FBB2
:10411C00F3F313604EF28030C0F60000FEF798F80F
:10412C004DF6C040C0F60000FEF792F84FF00A00C2
:10413C00FEF74CF806E041F6FC63C2F200034FF0C8
:10414C0000021A6001B010BD30B581B0044640F2D7
:10415C00A023C2F200031B78032B07D840F2B8034C
:10416C00C2F200031868FEF773F862E04DF6906334
:10417C00C0F60003084619466A4607F061FF01289D
:10418C0003D02046FFF784FF53E041F60073C2F2E0
:10419C00000358694FF0000107F08CF830B94DF668
:1041AC009460C0F60000FEF753F842E0009C2046F5
:1041BC004FF00001C4F2C82107F07CF8002808DB9E
:1041CC0020464FF48041C4F21C6107F073F80028BC
:1041DC0006DD4DF6B860C0F60000FEF739F828E0B1
:1041EC0041F66063C2F200031B78012B08D0FEF786
:1041FC0039FD41F66063C2F200034FF001021A7000
:10420C00009841F66463C2F20003186041F6A8649A
:10421C00C2F200044DF6DC65C0F6000506F000FEA7
:10422C0002460B462046294607F0F4FE2046FEF7D0
:10423C000FF801B030BD00BF10B581B0044640F29C
:10424C00A023C2F200031B78032B07D840F2B8035B
:10425C00C2F200031868FDF7FBFF56E04EF2240390
:10426C00C0F60003084619460DF1020207F0E8FEFD
:10427C00012803D02046FFF70BFF46E0BDF80200F3
:10428C0041F60A63C2F20003B3F90020904207DB47
:10429C0041F60C63C2F20003B3F90030984214DD0E
:1042AC0041F6A864C2F200044DF6F061C0F60001BC
:1042BC0041F60C63C2F20003B3F90030204607F05C
:1042CC00A9FE2046FDF7C4FF1FE041F66063C2F271
:1042DC0000031B78032B06D041F66063C2F2000387
:1042EC004FF000021A70FEF7F5FC41F6A864C2F21A
:1042FC0000044DF61071C0F60001BDF802202046F6
:10430C0007F088FE2046FDF7A3FF01B010BD00BFEB
:10431C0030B581B0044640F2A023C2F200031B78F2
:10432C00032B07D840F2B803C2F200031868FDF75C
:10433C008FFF33E041F66063C2F200031B78032B5E
:10434C0006D04DF62070C0F60000FDF781FF25E089
:10435C004DF69063C0F60003084619466A4607F00E
:10436C006FFE012803D02046FFF792FE16E000985E
:10437C00FCF7D0FA41F6A864C2F200044DF644757D
:10438C00C0F60005009806F04BFD02460B46204691
:10439C00294607F03FFE2046FDF75AFF01B030BD1D
:1043AC0070B581B0044640F2A023C2F200031B7822
:1043BC00032B07D840F2B803C2F200031868FDF7CC
:1043CC0047FF45E04DF69063C0F6000308461946DA
:1043DC006A4607F035FE012803D02046FFF758FE49
:1043EC0036E00098FEF708FC30B94DF65C70C0F66C
:1043FC000000FDF72DFF2BE040F2E023C2F200039A
:10440C00186841F6A864C2F200044DF67C75C0F63B
:10441C00000506F01DFC064640F2CC23C2F2000358
:10442C00186806F015FC0146304606F053FE4FF0B6
:10443C000001C4F2C82106F0E3FD06F0F1FC0246CF
:10444C000B462046294607F0E5FD2046FDF700FF08
:10445C0001B070BD10B582B0044640F2A023C2F288
:10446C0000031B78012B07D940F2D003C2F20003E2
:10447C001868FDF7EDFE4CE04DF69873C0F600039E
:10448C00084619466A4607F0DBFD012803D0204692
:10449C00FFF7FEFD3DE04DF69C71C0F6000168464D
:1044AC0007F0E2FD40B900F02BFC4DF6A470C0F60D
:1044BC000000FDF7CDFE2CE04DF6C071C0F60001FA
:1044CC00684607F0D1FD40B900F034FD4DF6C870D8
:1044DC00C0F60000FDF7BCFE1BE04DF6E071C0F627
:1044EC000001684607F0C0FD80B900F0C7FC30B190
:1044FC004DF6E870C0F60000FDF7AAFE09E04EF29A
:10450C000000C0F60000FDF7A3FE02E02046FFF716
:10451C00BFFD02B010BD00BF10B581B0044640F223
:10452C00A023C2F200031B78012B07D940F2D00361
:10453C00C2F200031868FDF78BFE31E04EF2200347
:10454C00C0F60003084619460DF102026B4607F04F
:10455C0077FD022803D02046FFF79AFD20E0BDF836
:10456C000200A0F10A0292B241F27E339A4206D9BD
:10457C004EF22800C0F60000FDF76AFE10E0BDF810
:10458C00001001F1FF339BB2B3F57A7F06D34EF2E4
:10459C005000C0F60000FDF75BFE01E0FCF7CCFA22
:1045AC0001B010BD10B5C0B240F29423C2F20003AA
:1045BC001B78834218D040F29423C2F20003187087
:1045CC0041F6A864C2F200044EF27401C0F6000178
:1045DC0040F2BC03C2F2000353F82020204607F03F
:1045EC0019FD2046FDF734FE10BD00BF00B540F2AA
:1045FC00A023C2F200031B78012B08D840F2B803A9
:10460C00C2F200031868FDF723FE5DF804FBFEF709
:10461C00E7FA4FF00100FFF7C5FF4EF28C00C0F631
:10462C000000FDF715FE5DF804FB00BF00B54FF070
:10463C000500FEF74FFA4FF00100FFF7B3FF4EF203
:10464C009C00C0F60000FDF703FE5DF804FB00BF04
:10465C002DE9F04381B0814688464EF2AC01C0F69C
:10466C00000140466A4607F0EBFC012803D048469F
:10467C00FFF70EFD38E01E4E4FF000073C4656F893
:10468C00045F284607F07EFD02462846694607F07F
:10469C00FDFC28B104F101042746042CEFD120E0E5
:1046AC00032F1ED848464146FFF7C0FFE2B241F641
:1046BC006063C2F200031A7041F6A865C2F20005ED
:1046CC004EF2B401C0F6000140F2A803C2F200039E
:1046DC0053F82420284607F09DFC2846FDF7B8FD2A
:1046EC0002E04846FFF7D4FC01B0BDE8F08300BF00
:1046FC00A40000202DE9F04381B0814688464EF29B
:10470C00CC01C0F6000140466A4607F099FC01282E
:10471C0003D04846FFF7BCFC1FE0114D4FF00006DC
:10472C0034464FF0030755F8040F69463A4607F034
:10473C00ADFC28B104F101042646052CF3D109E0A7
:10474C00042E07D848464146FFF770FFE0B2FFF74A
:10475C0029FF02E04846FFF79BFC01B0BDE8F0835F
:10476C00B800002000B540F2A023C2F200031B7871
:10477C003BB14EF2D000C0F60000FDF769FD5DF8CC
:10478C0004FB41F66063C2F200031B78032B03D0D9
:10479C004FF00100FFF706FFFEF7C4F94EF2E400FC
:1047AC00C0F60000FDF754FD5DF804FB70B505463E
:1047BC0041F6A864C2F200044EF2F001C0F600010A
:1047CC0040F2E803C2F2000353F82020204607F021
:1047DC0021FC2046FDF73CFD40F2B013C2F2000371
:1047EC0053F8256041F60073C2F2000353F825001C
:1047FC0006F016FB02460B462046314607F00AFC33
:10480C002046FDF725FD4DF66060C0F60000FDF773
:10481C001FFD70BD30B589B005460C464EF2FC014B
:10482C00C0F60001204601AA07F00AFC012803D0BB
:10483C002846FFF72DFC58E04EF20411C0F600019B
:10484C0001A807F011FC48B94FF001042046FFF70E
:10485C00ADFF04F10104322CF8D146E001A800F0C0
:10486C0035FA054600280FDA41F6A864C2F20004B6
:10487C004EF20C11C0F60001204601AA07F0CAFB4B
:10488C002046FDF7E5FC30E001A807F07BFC00F1C9
:10489C00010020184DF69061C0F600016A4607F041
:1048AC00CFFB01281ED140F2A023C2F200031B78DB
:1048BC00012B0FD941F6A864C2F2000440F2D003D8
:1048CC00C2F200031968204607F0A4FB2046FDF74E
:1048DC00BFFC0AE02846009900F0E4F92846FFF7EF
:1048EC0065FF02E02846FFF761FF09B030BD00BF4D
:1048FC0000B584B001904FF00003029303934DF682
:10490C00D831C0F6000143F6F973C0F600030093EA
:10491C0001A84FF013024FF00C0307F07DFA04B01E
:10492C0000BD00BF2DE9F04781464FF0000426463C
:10493C004DF6D835C0F6000588466759C24648463C
:10494C003946424607F0A2FB98B906F10106122E31
:10495C0017D84DF6D833C0F6000306EB460653F8CD
:10496C0026104846424607F091FB002808BF002756
:10497C0007E006F1010604F10C04132EDDD14FF013
:10498C0000073846BDE8F08700B54EF22C10C0F693
:10499C000000FDF75DFC41F68860C2F200004FF0AC
:1049AC0000014FF0200207F0BDFB41F6E863C2F2B4
:1049BC0000034FF000021A605DF804FBF0B541F6FD
:1049CC00FC63C2F200031B68002B00F0218141F64E
:1049DC003062C2F200021268B2FBF3F103FB112346
:1049EC00002B40F0158140F6DC43C2F2000318683E
:1049FC0041F67864C2F2000440F60433C2F20003BC
:104A0C001B68C01A06F024F940F6D043C2F200032A
:104A1C00196806F0F5FA20604EF28030C0F60000FE
:104A2C00FDF716FC41F6A864C2F200044EF23411F4
:104A3C00C0F6000141F6FC63C2F200031B684FF4A0
:104A4C00FA6292FBF3F2204607F0E4FA2046FDF7F7
:104A5C00FFFB4EF24811C0F600014FF00000FFF7CB
:104A6C0055F94EF24C10C0F60000FDF7F1FB41F683
:104A7C008860C2F20000FDF7EBFB4EF27C30C0F612
:104A8C000000FDF7E5FBC3E0FDF7CCFBC0B22368EB
:104A9C003246C2F20002D05403F101022260202AF5
:104AAC0004BF23600A202168002940D00A2801D0C5
:104ABC000D283CD1012937DD4DF66060C0F60000B1
:104ACC00FDF7C6FB4DF6BC40C0F60000FDF7C0FB81
:104ADC003046C2F200002368C3184FF0000203F8FE
:104AEC00012CFFF705FF054650B18768006807F0F9
:104AFC0049FB3146C2F2000109182846B84705E0C7
:104B0C004EF25010C0F60000FDF7A2FB41F65863C0
:104B1C00C2F200031B783BB141F6E863C2F200031A
:104B2C004FF000021A60F0BDFFF72EFF76E0092867
:104B3C002FD101F1FF3121603046C2F200004FF05D
:104B4C0000034354FFF7EEFE0546002866D007F03D
:104B5C0019FB024620603746C2F200073846294648
:104B6C0007F0C2FA23684FF02002FA5403F1010354
:104B7C0023604EF26410C0F60000FDF769FB384666
:104B8C00FDF766FB4EF27C30C0F60000FDF760FBD3
:104B9C0044E0032802D1FFF7F7FE3FE07F2826D13F
:104BAC00012920DD3746C2F2000779184FF00003C7
:104BBC0001F8023C4EF26415C0F600052846FDF7DC
:104BCC0047FB3846FDF744FB4FF02000FDF7FEFA9B
:104BDC002846FDF73DFB3846FDF73AFB2368A3F169
:104BEC00020323601AE001F1FF31216016E0A0F10D
:104BFC002003DBB25E2B08D94FF00700FDF7E6FA75
:104C0C00236803F1FF33236008E0FDF7DFFA05E0CA
:104C1C0041F6E864C2F2000441F68866FDF7F4FA46
:104C2C0000287FF431AFF0BD00B54EF28030C0F6F5
:104C3C000000FDF70DFB4DF6C040C0F60000FDF77F
:104C4C0007FB02F091FA034641F6EC60C2F2000059
:104C5C004EF26811C0F600014EF27012C0F600025E
:104C6C0007F0D8F94FF000000146FFF73BF84EF281
:104C7C007810C0F60000FDF7EBFAFFF785FE5DF843
:104C8C0004FB00BF00B5FDF733F8FCF7DFF9FEF7C6
:104C9C0021FFFDF78BFCFDF7C7FB01F0E5FF5DF88D
:104CAC0004FB00BF00B531280BD841F60073C2F2EB
:104CBC00000343F82010FFF7E5FF4FF001005DF80B
:104CCC0004FB4FF000005DF804FB00BFF0B5074695
:104CDC000A4E4FF0000456F8045F284607F052FACB
:104CEC0002462846394607F0D1F928B104F10104EF
:104CFC00322CF0D14FF0FF342046F0BDE400002000
:104D0C0030B541F60073C2F200034AF2D732C4F256
:104D1C0000021A604FF000025A604FF00001C4F616
:104D2C00610199604FF07A51D96044F65211C3F683
:104D3C001D2119615A619A61DA611A625A629A628A
:104D4C00DA624FF07C541C634FF00001C4F248212E
:104D5C0059634FF40041C4F23B6199634FF0000179
:104D6C00C4F2F011D9634FF00001C4F220111964A0
:104D7C004CF6CD40C3F68C7058644FF00000C4F272
:104D8C00962098644FF00000C4F24020D8644FF095
:104D9C000000C4F2A010186558654FF00000C4F272
:104DAC00601098654FF40040C4F20950D8654FF478
:104DBC00A040C4F2C36018664FF40040C4F23B40FC
:104DCC0058664FF00000C4F27A4098664FF44045A4
:104DDC00C4F2F345DD664FF42045C4F20C551D6753
:104DEC004FF40045C4F289455D674FF40055C4F299
:104DFC00CB559D67DA67C3F8801049F69A11C3F654
:104E0C001961C3F88410C3F888204FF07E51C3F8A1
:104E1C008C104FF00005C4F21645C3F8905046F2C2
:104E2C006665C3F66675C3F89450C3F898204FF0C6
:104E3C000005C4F27A65C3F89C50C3F8A020C3F8EF
:104E4C00A420C3F8A8404FF08344C3F8AC404CF600
:104E5C00CD44C3F64C54C3F8B040C3F8B420C3F8E7
:104E6C00B8004FF00000C4F2B430C3F8BC00C3F873
:104E7C00C020C3F8C410FFF705FF30BD2DE9F04189
:104E8C0040F2E730FDF722FE80464FF0010002F0C1
:104E9C0083FB4FF0210401E0FDF716FE204602F0E3
:104EAC00D7FC0128F8D105F01BFB4FF0340005F0BE
:104EBC0031FB4FF47C40C0F6000005F0C9FB042820
:104ECC001DD14FF47C44C0F6000441F60077C2F2C9
:104EDC0000074FF48065CFF2FF754FF6C846C0F659
:104EEC0000063B195959204605F064FB042809D1EA
:104EFC0004F10404B442F4D14FF0010504E04FF086
:104F0C00000501E04FF0010505F0FAFAFDF7DCFDB4
:104F1C004FF0000002F040FB4FF02104204602F05D
:104F2C0097FC0128FAD04046FDF7D0FD2846BDE895
:104F3C00F08100BF00B541F60070C2F200004FF4E2
:104F4C007C41C0F600014FF0C80207F0CDF8FFF726
:104F5C0099FE5DF804FB00BF30B5FFF7D1FE4FF4AE
:104F6C007C43C0F600031C68204606F011FD10B10E
:104F7C00FFF784FF30BD41F60073C2F200031D68D9
:104F8C002846214606F096F9002802DCFFF7D2FFEE
:104F9C0030BD2046294606F08DF9002801DAFFF7CE
:104FAC006DFF30BD10B5C4B2FDF73CF9C0B274B1A1
:104FBC0041F6E173C2F200031A788218D2B21A7069
:104FCC0041F6E273C2F20003197852181A7010BD40
:104FDC0010B50446FDF7FAF841F6E473C2F200038B
:104FEC001A78A418E4B21C7041F6E573C2F20003FF
:104FFC001A78A4181C7010BD30B581B001AC44F8FF
:10500C00040D01AD6C4614F8010BFFF7E1FFAC4247
:10501C00F9D101B030BD00BF10B581B001AC24F89E
:10502C00040DC0B2FFF7D4FF6078FFF7D1FF01B0D9
:10503C0010BD00BF30B541F6DC74C2F2000441F67D
:10504C00C875C2F200053AE04EF2A860C0F6000046
:10505C00FDF7FEF841F6E573C2F200034FF00002D3
:10506C001A7041F6E473C2F200031A704FF0030099
:10507C00FFF7AEFF238853B14FF0FA00FFF7A8FFFC
:10508C002088FFF7C9FF4FF00003238009E04FF0A1
:10509C00FB00FFF79DFF2888FFF7BEFF4FF00003D2
:1050AC002B8041F6E473C2F200031878FDF78EF8FA
:1050BC0041F6E573C2F200031878FDF787F82388F0
:1050CC00002BC1D12B88002BBED130BD00B541F6D1
:1050DC00E473C2F200031878FDF778F841F6E57333
:1050EC00C2F200031878FDF771F8FFF7A3FF41F641
:1050FC00E373C2F200031B780BBB4EF2AC60C0F63C
:10510C000000FDF7A5F841F6E573C2F200034FF07D
:10511C0000021A7041F6E473C2F200031A7041F6F1
:10512C00FD73C2F200031878FFF752FF41F6DF73EC
:10513C00C2F200031878FFF74BFF5DF804FB41F651
:10514C00E873C2F200034FF000021A6041F6E373F9
:10515C00C2F200031A705DF804FB00BF41F6DC7369
:10516C00C2F2000341F6D072C2F200021268C2F31E
:10517C000F221A80704700BF41F6C873C2F20003B9
:10518C0041F6D072C2F200021268C2F30F221A80EA
:10519C00704700BF70B541F6D073C2F200031B78A4
:1051AC000E2B00F29781DFE813F00F00120027009E
:1051BC00760140006100950170005C01470095018B
:1051CC005C00B80095011201FFF7C8FF82E140F2C4
:1051DC00A023C2F200031B785BB940F29423C2F205
:1051EC0000034FF001021A70FDF79CFCFFF7B6FFAD
:1051FC0070E1FFF7C1FF6DE140F2A023C2F20003A2
:10520C001B78012B02D9FFF7B7FF63E141F6E87376
:10521C00C2F200034FF000021A6041F65863C2F26A
:10522C0000031A70FFF79AFF54E14FF00600FDF7E8
:10523C0051FCFFF793FF4DE140F2A023C2F20003B3
:10524C001B7833B140F2A023C2F200031B78012B70
:10525C0002D9FFF791FF3DE1FDF70CFDFFF77EFF53
:10526C0038E1FDF7BDFCFFF779FF33E141F6D07370
:10527C00C2F20003D3F80300FDF7BEFC10B1FFF738
:10528C006DFF27E1FFF778FF24E141F60073C2F2CE
:10529C00000358694FF0000106F00CF8002839D0D3
:1052AC0041F6D073C2F20003D3F8034020464FF00E
:1052BC000001C4F2C82105F0FDFF002809DB2046DF
:1052CC004FF48041C4F21C6105F0F4FF002805DCAA
:1052DC0008E04FF00004C4F2C82403E04FF480440B
:1052EC00C4F21C6441F66063C2F200031B78012B0C
:1052FC0008D0FDF7B7FC41F66063C2F200034FF033
:10530C0001021A7041F66463C2F200031C60FFF7DD
:10531C0025FFDFE0FFF730FFDCE041F6D073C2F28F
:10532C000003D3F8030005F025FD044605F090FCBE
:10533C004FF07E5105F0BEFF00283EDBB4F57A7FBE
:10534C00A8BF4FF47A7441F6E873C2F200034FF42D
:10535C00FA6292FBF4F21A60642C0BDD48F21F53D4
:10536C00C5F2EB1383FB04124FEAE474C4EB221274
:10537C00D2B201E04FF0010241F6FD73C2F200031C
:10538C001A7041F6E373C2F200034FF000021A7078
:10539C0041F6DF73C2F200031B78ABB941F6EC7334
:1053AC00C2F200034FF004021A7041F6DF73C2F22E
:1053BC0000034FF001021A7006E041F6E373C2F2EB
:1053CC0000034FF001021A70FFF7C8FE82E041F6AD
:1053DC00D073C2F20003D3F8034020464FF0834150
:1053EC0005F068FF002839DA41F6D073C2F20003E9
:1053FC00D3F8075028464FF0834105F05BFF002897
:10540C002CDA41F6EC76C2F20006204605F0B2FC2E
:10541C000446284605F0CEFC305541F6DF73C2F247
:10542C0000034FF000021A703378002B5BD112E0AE
:10543C0012F8011F29B941F6DF73C2F2000318708C
:10544C0009E0D8B203F10103112BF1D141F6DF735E
:10545C00C2F200031870FFF781FE3BE0FFF78CFEF1
:10546C0038E040F2A023C2F200031B78012B0FD8C6
:10547C0041F6D074C2F20004D4F8030005F07AFCB3
:10548C00D4F80710FFF70EFC10B1FFF767FE21E010
:10549C00FFF772FE1EE041F6D073C2F20003D3F8A0
:1054AC00030005F067FC012807D002280ED088B94C
:1054BC00FFF740FDFFF752FE0CE0FFF7DFFC10B1E9
:1054CC00FFF74CFE06E0FFF757FE03E0FFF718FC72
:1054DC00FFF744FE41F6E873C2F200031B6883B980
:1054EC00FFF7A8FD70BD41F6DF73C2F200034FF069
:1054FC000100187041F6EC72C2F200024FF0020388
:10550C0096E770BD30B541F6FC74C2F200044FF062
:10551C00000562E0207803288CBF00200120FFF7F3
:10552C0041FD2378052B57D8DFE803F003091B292D
:10553C00424D412851D14FF0010323704DE07128A9
:10554C000DD141F6E273C2F200031D7041F6E17316
:10555C00C2F200031D704FF0020323703DE0257072
:10556C003BE041F6E073C2F20003187041F6DE73C3
:10557C00C2F200031D704FF0030323702DE041F6BF
:10558C00DE73C2F20003197841F6D072C2F2000247
:10559C00505401F10102D2B21A7041F6E073C2F21A
:1055AC0000031B78934218D14FF00403237014E0CE
:1055BC0041F6E173C2F200031B78834212BF2570DF
:1055CC000523237009E041F6E273C2F200031B7855
:1055DC00834201D1FFF7DEFD2570FCF715FE002894
:1055EC0098D130BD2DE9F041FFF78CFF41F6E873FF
:1055FC00C2F200031B68002B00F00B8141F6CC7249
:10560C00C2F200021268B2FBF3F103FB1123002B70
:10561C0040F0FF8041F6EC73C2F200031B78002BC4
:10562C0000F0DF8041F6EC74C2F2000404F10F05C7
:10563C0040F2D427C2F2000740F6CC3604E014F84E
:10564C00013F002B00F0CD8003F1FF330E2B00F255
:10565C00C580DFE803F0081018353D535F69747C92
:10566C00869099A3BE0041F66863C2F200031868E5
:10567C00FFF7C2FCB2E041F63463C2F200031868D3
:10568C00FFF7BAFCAAE040F2D023C2F2000318687C
:10569C0005F0DEFA804640F2CC23C2F20003186813
:1056AC0005F0D6FA0146404605F014FD41F6346388
:1056BC00C2F20003196805F0A3FCFFF79DFC8DE016
:1056CC0041F63C63C2F200031868FFF795FC85E0D5
:1056DC0040F2D023C2F20003186805F0B9FA8046F4
:1056EC0040F2CC23C2F20003186805F0B1FA01466F
:1056FC00404605F0EFFCFFF77FFC6FE040F6C4334B
:10570C00C2F2000318684FEA500005F0D1FAFFF717
:10571C0073FC63E040F2C023C2F20003186805F08A
:10572C00C7FAFFF769FC59E040F69433C2F2000364
:10573C00B3F9000005F08CFAFFF75EFC4EE041F681
:10574C007C63C2F200031868FFF756FC46E040F297
:10575C00A023C2F20003187805F0AAFAFFF74CFC5C
:10576C003CE040F6E043C2F20003186805F0A0FAF2
:10577C00FFF742FC32E03346C2F20003186805F032
:10578C0097FAFFF739FC29E040F6FC23C2F200033C
:10579C00186805F08DFAFFF72FFC1FE03246C2F2B5
:1057AC00000240F6E043C2F2000310681B68C01808
:1057BC0040F6FC23C2F200031B68C01805F078FA0F
:1057CC004FF00001C4F2400105F084FCFFF714FC1B
:1057DC0004E0387805F06CFAFFF70EFCAC427FF46D
:1057EC002EAF42F20003C2F200031A6802F101026A
:1057FC001A6041F6FD73C2F200031B789A4208D17D
:10580C00FFF764FC42F20003C2F200034FF0000207
:10581C001A6041F6CC73C2F200031A6802F101025D
:10582C001A60BDE8F08100BFC2B2C8B24FF00803E5
:10583C0080EA020111F0010F0FBF400880F0180040
:10584C00C0F3470040F080004FEA520203F1FF33EF
:10585C00DBB2002BECD1704770B542F21802C2F2E9
:10586C0000024FF0AA03137016464FF2E773C1F60D
:10587C00FF734FF2ED70C1F6FF7013F8011F02F8C1
:10588C00011F8342F9D142F21804C2F200044FF016
:10589C000003E37104F1FF3406F1060642F2180529
:1058AC00C2F2000514F8010FE979FFF7BDFFE871AA
:1058BC00B442F7D170BD00BF00B5FCF7EBFD4FF45F
:1058CC000063C4F201035A6822F00F0242F0030293
:1058DC005A605DF804FB00BF00B54FF40063C4F2DE
:1058EC0001035A6822F00F0242F004025A60FCF7DE
:1058FC00EBFD5DF804FB00BF00B5FCF7A3FFFFF761
:10590C00EBFFFCF7D5FD40F2AC23C2F200031B68A1
:10591C001A689B88136140F29423C2F200034FF083
:10592C0000021A705DF804FB00B54FEA400045F622
:10593C000511C0F600014FF00002FDF745F85DF8C7
:10594C0004FB00BF10B5C4B24FF49670FFF7ECFF28
:10595C0042F22703C2F200031C7042F22403C2F28B
:10596C0000034FF000021A7042F22503C2F200034A
:10597C001A7010BD00B501280FD002281BD00028CA
:10598C0042D145F68111C0F600014FF01E004FF0D8
:10599C000102FDF719F85DF804FBFFF78DFF45F6E2
:1059AC008111C0F600014FF08C004FF00202FDF7A0
:1059BC000BF85DF804FBFFF78FFF40F2AC23C2F24B
:1059CC0000031B681A689B88536142F21403C2F2ED
:1059DC0000034FF003021A7042F22003C2F20003DC
:1059EC0042F20402C2F200021A6042F22803C2F22E
:1059FC0000034FF000021A704FF00100FFF7A2FFF6
:105A0C0043F69820FFF790FF5DF804FB00B540F2D9
:105A1C009423C2F200034FF004021A704FF00000FE
:105A2C00FFF7A8FF5DF804FB10B5C4B24FF49670F5
:105A3C00FFF77AFF42F22003C2F200031B681A78C8
:105A4C0042F22403C2F200031A7042F22603C2F29D
:105A5C0000031C7042F22503C2F200034FF0000257
:105A6C001A7010BD10B542F20403C2F200031B7889
:105A7C00082B00F0498110D8052B00F0DF8005D8E9
:105A8C00032B7AD0042B40F0B4818BE0062B00F072
:105A9C002181072B40F0AD8133E1332B58D006D850
:105AAC00092B00F063810A2B40F0A38143E1552BB5
:105ABC0003D0CC2B40F09D813CE042F22803C2F293
:105ACC0000031B78552B11D042F22803C2F20003BD
